:040000006F20C01B92
:100004000000000000000000F21B0000F41B0000D0
:1000140000000000BA210000000000000000000001
:10002400BA210000BA210000000000000000000016
:10003400BA21000000000000BA2100000000000006
:10004400BA210000BA210000BA210000F81F000004
:10005400BA210000BA210000BA210000BA21000030
:10006400BA210000BA210000BA210000BA21000020
:10007400BA210000BA210000BA210000BA21000010
:10008400BA210000BA210000BA210000BA21000000
:1000940070110000BA210000BA210000BA2100004A
:1000A400BA210000BA210000BA210000BA210000E0
:1000B400BA210000BA210000BA210000BA210000D0
:1000C400BA210000BA210000BA210000BA210000C0
:1000D400BA210000BA210000BA210000BA210000B0
:1000E400BA210000BA210000BA210000BA210000A0
:0C00F400BA210000BA210000BA2100006F
:10010000397101436EC619A0397141536AC866CA74
:1001100062CC5ECE19A0397101535AD056D252D456
:100120004ED64AD826DA22DC06DE330161408282CE
:1001300041114AC026C222C406C68282B24D410184
:10014000024D924C224CB24B4101024B924A224A40
:10015000B2494101024992442244B24041018280A5
:10016000EFF21FFD11E583A7018405479AABDDB7C8
:1001700083A781849C43829703A501842905C5BF79
:10018000EFF21FFB11E583A7018405479AABD9B7AE
:1001900083A781849C47829703A501843105C5BF4D
:1001A00003A7018401E589471EAB8280EFF25FF867
:1001B000239E01821C231384C18393F7F70795E7DD
:1001C00018379377070299C389471CA01377070450
:1001D0001C2011CB93E717001CA083A781849C4BA4
:1001E0008297228585BFF99BC5BF85461385C1834C
:1001F000E38AD7FE89460145E396D7FE5833B766B2
:100200000040938606C09377F7008A07B697620787
:100210009C4361876359070093F707034147E39EB7
:10022000E7FA854755BF0D67F98F0567CDBFEFF238
:100230009FEE83A401843E8A822829E8982491476E
:100240006316F7041387818314438547639BF60283
:10025000B767004083A707C5B73600208906C207E5
:10026000C183B697860723A007009307000323984E
:10027000F18423200700114983A7018423842701E7
:10028000E9B5C1472398F1841D49FDB7DE2811491E
:1002900063F38700094963F387003E849C4C420462
:1002A000418022858297AA8A0145EF003055228637
:1002B000AA855685EF001032A2850145EF00B057A0
:1002C0009E280D67818F9EA8BE283E949307000349
:1002D0002398F184A2A82397E18479BF83A701849E
:1002E00083C65181B833094563EFE600B42381EE3C
:1002F000D62391EAEFF2DFE3B8A783A78184DC433A
:100300008297014581BD8280EFF29FE283A701843D
:1003100003A741844111AC33184FC833029783A718
:100320000184B82705C72AC615E1D82305E3BC23F5
:1003300091EF83A78184DC47829783A701843245AC
:10034000D833B8B7B833D8A7410129B50945EDBFAF
:1003500083A70184942393F6F60781EA98371377ED
:10036000F7FD98B701473A85828009460947E39C23
:10037000C6FEB623EDFAD423FDF6EFF27FDBD033D1
:1003800037670040130707C01375F6F713142500ED
:100390003A946206144061866355060493F6060398
:1003A00083C541810947637CB50295CABC2785CBCB
:1003B0001C40635B060293F707034147639CE70019
:1003C0001374F50F2285EF00503C9305000322853E
:1003D000EF00702783A78184DC4B829701473A8521
:1003E00095BB0D67F98E6DBFC164FD140D67E58F78
:1003F000F98F0567E390E7FE1DEDB707002083C581
:10040000C707EF0030451C4071771307F7F8F98FE5
:10041000C2070D67C183B98F617713070708D98FAA
:10042000C207C1831CC08D661840658F758FE303BA
:10043000D7FA1CC0D5BFEF0010321C4071771307EC
:10044000F7F8F98FC2070D67C183B98F617713077A
:100450000708D98FC207C1831CC08D661840658FFD
:10046000758FE309D7F61CC0D5BF03A60184B76713
:100470000040938707C0543293F5F6F71397250091
:10048000BA97E2069843E18663DE06041377070312
:1004900003C84181094563F605092E22D9E151C3FC
:1004A000382641C3EFF2DFC8984363D20604E576ED
:1004B0009386F6FB758F42074183E1761347070168
:1004C00093860608558F4207418398C3414694435B
:1004D00093F60603639BC60083A781849C4F829793
:1004E00001458DB90D65698F65B798C3CDB7F176B4
:1004F0009386F6F8758F420785664183358FE176DE
:1005000093860608558F42074183416698C37D163E
:100510000D6585659443F18EE98EE38FB6FA98C335
:10052000D5BF8280EFF2DFC003A701841C3793E7B9
:1005300007021CB783A78184DC4F8297014519B954
:1005400003A701843E2B11E5CA211D8D0AAB01458D
:10055000828088413E958280EFF29FBDB7070020E0
:1005600083C5C7070145EF00F02E83A701848827C4
:10057000A1476318F50005672397E1844147239855
:10058000E1845D1513351500F1B6EFF27FBA03A9CA
:10059000018437660040832706C5834689002547C6
:1005A00041116385E60441641307F4FFB736002068
:1005B000F98F9106B69786078043798C06043294AA
:1005C0001C202300F9001C30A300F9004A20EF0092
:1005D000B0322311A9000A2403A90184EF00D0310D
:1005E0002312A9005A2483A70184FAA383A70184B4
:1005F000054798A7FA2380336319070C98231377CC
:10060000F70755E325476315E400C93925E12DA017
:1006100015476316E4040387370063590700A147B1
:1006200003A701841CA70D3F41012DB6B82365FB2C
:10063000DA2375F7BC27E5F7B767004083A707C53E
:10064000373700200907C207C183BA97860723A05E
:100650000700130700032398E1849947D1B70D479A
:100660006315E402B4330547638DE60083A7418434
:100670002285DC4B82970D47A547E303E5FA4DDD64
:1006800079BFDE23E5F7793D51B70547E310E4FE76
:10069000B833E31D87FCDA2371FB9C3793F707021D
:1006A000F1D77D31A5B785476317F700AD47E31F45
:1006B000F4FA9939A1BF8946E31AD7FAE303F4FEA5
:1006C0008D47E315F4FA553391B719476319E402DE
:1006D00098231377F70771EBBC23854603A7418462
:1006E0006395D7005C4FF1C389A089466394D70016
:1006F0001C53D5BF8D46639AD70A5C53EDB761E8AA
:10070000BA2345E7D843C1769386F60F758FB706AF
:100710000200631CD70898231377F70705EFDE2341
:10072000C9E7B70700009387071A03A701840145AB
:10073000231907001CCF8297014583A70184C16656
:10074000FD169A2B630FD70689466303D50069EF20
:1007500021478DA88546631ED70003A74184C8336F
:100760008145184F029731E183A70184BC27D5FB4F
:100770002DA88946631BD702D833B76600409386FD
:1007800006C01376F70093172600B6979C4393167E
:100790008701E18663DA060293F7070383C6418186
:1007A0006375D6001377070779D303A7018483A75E
:1007B000418408339C4B82978D47E310F5F883A75B
:1007C0000184254798A785B58D66F58FC1BF214760
:1007D000631BE4009C2393F7F707E1FBB7070000D6
:1007E0009387071699B72947E311E4FC98238546B8
:1007F0001377F707E31BD7FAB82745DBBA2355F77A
:10080000D843C1769386F60F758FC166E31FD7F87C
:1008100003A74184C8338145184F029759F5B7079C
:1008200000009387071811B78386070063D1060479
:1008300083A64184EE2303C6C6022EC63245931614
:100840000601C1826377E50032479AABD6ABC53269
:10085000D9BBE37DB7FE6375D70023AC0182FDB73A
:100860003367C70265F7054623ACC182C5B70D479C
:1008700098A70D672397E1847DB3EFF2DF8903A486
:100880000184A1441C241387E7FF1377D70F2DC7DA
:100890001387D7FF1377D70F49EF1C4C85CB06285A
:1008A000B9C05A2863739700BA84C204C1802685F0
:1008B00082971E28AA890145858F1EA83E28A697E3
:1008C0003EA8992FAA8526864E853D231E2881CFD6
:1008D0000D67814501452397E184EF00C07513073B
:1008E00000032398E1841E28562803A7018463EBA4
:1008F000D7008D471CA7042783A7018484A7A939A3
:100900006FF0BF8499C39547F5B799471CA7B767A0
:10091000004083A707C5B73600208906C207C183F8
:10092000B697860723A00700930600032398D18477
:10093000D9B71D47A144E391E7FC83A74184DC4775
:1009400082975DBF03C3418137660040C16505687A
:10095000A1680147130606C0FD151308F8F0938837
:1009600008086369670013650508B767004023A698
:10097000A7C4828093162700B2969C42ED8FB3F7EE
:100980000701D98FB3E717019CC20507D9BFEFF262
:100990002FFA83A7018494271387E6FF1377D70FD5
:1009A00001EFEFF0DF8883A70184982783A70184F4
:1009B00098A75D366FF00FFA19462147E398C6FEF7
:1009C00094331547639CE60098231377F70719E7DC
:1009D000A8338D3F83A781849C53829783A741844A
:1009E0009C4782972147D9B78280EFF26FF49387B3
:1009F000C18823A0F184094798A7370700209306F0
:100A0000070523A2D184B70700209387070A23A4F0
:100A1000F1848327070582976FF0CFF3EFF2CFEED3
:100A20004111370A0020B70A0020E179231701009D
:100A3000130A8A01938A4A0393890908B76500401B
:100A400083A745C41397070141832392E186139737
:100A500007016357071683D741863A84BD8B238FDE
:100A6000F182938605C06396073003A705C093877C
:100A7000E184420741839AA39A23938601851377E1
:100A800007039AA29A238D662166758F9AA303A7FE
:100A900005C0A5679387F7FB7D8F83A705C0B16667
:100AA0009386F6F8F58F8966B58F1347070293167C
:100AB0000701130606085D8F518FC18223A0E5C090
:100AC00033E7360142079384E18413890185376651
:100AD0000040930500024183832606C093F6060377
:100AE0006393B60EB3E73701C166C20737660040AD
:100AF000FD160D658965C183032706C0130406C072
:100B0000758F698F6314B70C83D74186C18BE1EB76
:100B10001C40A5691387F9F0F98F1CC08D3D184062
:100B20001440B1679387F7F8F58F96209389F9FB06
:100B30003377370113963601635406008566B58F07
:100B4000962013962601635406008966B58F835656
:100B50000900C18A99C2134707018356090093F619
:100B6000060299C21347070221669316070113066E
:100B700006085D8F518F376600402320E6C06177FD
:100B8000C18213070708558F42074183832606C099
:100B90008355090093F60603639DB6026177130738
:100BA0000708D98FC166C20737660040FD160D657C
:100BB000C183032706C08E20758F698F631EB7001F
:100BC00041016FF0EFD72320E6C039B72320F6C0EC
:100BD00025B72320E6C05DBF2320F6C0D9BF1C4047
:100BE000856BC207C1837C873C871397470163509D
:100BF000070C1C401387FBF8F98F1CC0EFF0FF981F
:100C00001840A5679387F7FB14407D8FB1679387E2
:100C1000F7F8F58F96201396360163540600B3C794
:100C20007701962013962601635406008966B58FD6
:100C300083560900C18A99C21347070183560900E8
:100C400093F6060299C2134707022166931607011D
:100C5000130606085D8F518F376600402320E6C0DB
:100C60006177C18213070708558F420741838326A6
:100C700006C08355090093F606036397B6026177B1
:100C800013070708D98FC166C20737660040FD16F3
:100C90000D65C183032706C08E20758F698FE30120
:100CA000B7F22320F6C0FDB72320E6C0C9B73C87C2
:100CB000C207C187E3D407D81C401387FBF8F98F1C
:100CC0001CC0653E1840A5679387F7FB14407D8FD5
:100CD000B1679387F7F8F58F962013963601635422
:100CE0000600B3C7770196201396260163540600C9
:100CF0008966B58F83560900C18A99C213470701D7
:100D00008356090093F6060299C21347070221662B
:100D100093160701130606085D8F518F3766004052
:100D20002320E6C06177C18213070708558F420769
:100D30004183832606C08355090093F60603639713
:100D4000B602617713070708D98FC166C2073766F5
:100D50000040FD160D65C183032706C08E20758FE8
:100D6000698FE30FB7E42320F6C0FDB72320E6C068
:100D7000C9B71397270036971443C206C1827487F8
:100D80003487C206C18663DD0600FD1714438A0757
:100D90000566D6971306F6F89C43F18E14C3829726
:100DA0003C8793F70708E38B07C883C7E183B766DF
:100DB0000040938606C0139727003697FD1714430B
:100DC0008A07D29725661306F6F09C43F18E14C36A
:100DD0008297ADB1B73700200506BE95058686051A
:100DE00011E282801C3118219105A207D98F239E20
:100DF000F5FE09057D16EDB7B73700200506BE954F
:100E00000586860511E282809C4109057D16231F17
:100E1000F5FE9105C5BF619942054181B767004064
:100E200023A8A7C48280B7670040938707C00A053C
:100E30003E951C4165771307F798F98FDD8DC20544
:100E4000C1810CC18280B7670040938707C00A0543
:100E50003E951C4165771307F7FBF98FC20713F71F
:100E60000501C18319C393C7070113F7050219C30D
:100E700093C70702617713070708D98FC207C18399
:100E80001CC1184113770703E31CB7FE8280B767C4
:100E90000040938707C00A053E951C4171771307F0
:100EA000F7F8F98FC20713973501C1836354070020
:100EB0000567B98F13972501635407000967B98F38
:100EC000617713070708D98FC207C183C1661CC1A8
:100ED000FD160D661841758F718F6313B700828000
:100EE0001CC1CDBFB7670040938707C00A053E9578
:100EF0001C4171771307F7F8F98FC2070D67C1839B
:100F0000B98F617713070708D98FC207C183C166FC
:100F10001CC1FD160D661841758F718F6313C700D4
:100F200082801CC1CDBFB7670040938707C00A0508
:100F30003E951C4105671307F7E0F98F61771307AA
:100F40000708D98FC207C1831CC18280EFF24F9E70
:100F5000D93F6FF02FA0B7670040938707C00A05FD
:100F60003E951441C1671387F7FF9397160163DD20
:100F700007001C41F98F05671307F7F0F98F3167F8
:100F800013070708D98F1CC18280B7670040938779
:100F900007C00A053E951C4193F7070491CF1C41F9
:100FA00041677D17F98F05671307F7F0F98F216700
:100FB0001307070CD98F1CC18280B767004083A735
:100FC00007C50E058581C207C1833E95B73700204E
:100FD0003E95060586050CC18280B767004083A751
:100FE00007C50E058581C207C1833E95B73700202E
:100FF00091073E95060586050CC18280B7670040C3
:1010000083A707C50E05C207C1833E95B7370020E9
:101010003E9506050A218280B767004083A707C571
:101020000E05C207C1833E95B737002091073E9554
:1010300006050A218280B767004083A707C50E0511
:10104000C207C1833E95B737002089073E95060544
:101050000CC18280B767004083A707C5131735000E
:10106000C207C183BA97373700201907BA97130709
:10107000E00386076373B70413D75500FD8981E544
:101080007D17420741832A07A166558F98C30DE556
:10109000B707002083C7C7071307E0036376F7028B
:1010A00013D75700FD8B81E77D17420741832A073D
:1010B000E1775D8F239BE184828013D715008589BA
:1010C00091C105072A07D9B713D71700858B91C39C
:1010D00005072A07C5B7B767004083A707C50E05F0
:1010E000C207C1833E95B737002099073E95060594
:1010F00008411375F53F8280935785001375F50FEE
:1011000022055D8D828037670040F177232207C476
:10111000938707F02396F184B167938707F0232024
:10112000F7C401458280EFF2AF8032849374F507F3
:10113000268542042E894180D1352286AA854A859A
:1011400051392685A285C53D01456FF0AF80EFE29C
:101150003FFE9374F50726852E89B53F2A842685A0
:10116000653DAA8522864A85413922856FE09FFE2A
:10117000092E73002030EFE2BFFB03A74182B7477F
:1011800095089387074009456300F702B7E7B8055C
:101190009387078005456309F700B777DC029387DB
:1011A00007C06315F7000145EF1080168545370528
:1011B0008000EF10A01E6FE0FFF90D4723A8E18625
:1011C000828003C7618909C7154723A8E186828009
:1011D0000547E5BFEFE2DFF54111930740127C843C
:1011E00085475C85280085473EC6EF10600A930757
:1011F000A00328007C84EF10A00941016FE09FF557
:10120000EFE21FF3AA842E8411458545EF102017C5
:10121000B1CCB766004083A706C441677517F98F44
:1012200023A0F6C4B717014003A74780B716F0FF05
:10123000FD16758F23A2E78003A7C780F9769386F2
:10124000F67F758F23A6E78003A74780B746040083
:10125000558F23A2E780374702408327078021C8A4
:1012600093E727002320F7806FE0DFEE3767004029
:10127000832707C4B716F0FFFD1693E72700C207C0
:10128000C1832320F7C4B717014003A74780758F98
:1012900023A2E78003A7C780F9769386F67F758F30
:1012A00023A6E78003A74780B736030055B7F59B11
:1012B00055BFEFE2FFE78545054599376D3DEFF0F6
:1012C000CFF2093F8935930500030D45AD3E3767E1
:1012D0000040832747C493E707402322F7C48327AE
:1012E00047C493F70740E5FFB7070020A380072A0C
:1012F0006FE05FE637670040832707C00145C207FC
:10130000C18389CB032507C08D677D8DF9773E9515
:101310003335A0008280EFE2BFE1E93FFD570DC108
:10132000B707002003C7072A81471377F70F09EB98
:10133000B707002083C7172A93F7F70F93B7170053
:101340003E856FE03FE1EFE2BFDE411165370DC939
:1013500002C61304401FC1371DC5138441851020E8
:101360009385819A130530087D3BB7070020054718
:10137000930500030D452380E72AF1342300040080
:1013800041016FE03FDDB247E36CF4FEB2478507F1
:101390003EC6D1B7EFE23FD8411181441389819A0B
:1013A000130AF00393970401C18363E5B700410179
:1013B0006FE0BFD9138441851C20330795001823A3
:1013C000CA9798A31C20850793F7F70F1CA01C2031
:1013D0006379FA002EC62AC4BD37B24522452300E0
:1013E00004008504C1B703C5218583C731851D8DE0
:1013F0001375F50F82801387318593872185142318
:101400009C2393F7F70FE388D7FE14239387818AF1
:10141000B69788231C23850793F7F70F1CA38280B8
:101420008280EFE2FFD075710C0809450D3313750A
:10143000F50FC88781479386818A90871387218516
:1014400063EEC70094871C230945B69793F7F70FFF
:101450001CA3EFF03FA949616FE0DFCF182310090B
:101460003E963E97034606F81377F70F36978507A3
:1014700010A393F7F70FD1B7B70700202380072AEF
:101480008280EFE2FFCA37680040032708C5C165C4
:101490001385F5FF83D66185B7370020698F1386E2
:1014A0006700329706071843938505C00111F98D2F
:1014B000638CD500832708C593F606C0E98FB297E1
:1014C00086079843D98E94C3B766004083A746C465
:1014D00013874186C207C1831EA31A2383D7C18401
:1014E000138441867D8F1377072009CF4167130747
:1014F000F7DF23A2E6C49386818598220507137738
:10150000F70F98A21A20F98FC207C18763D407008A
:10151000EFF0CFD01E2003D7C184F98F93F7074097
:1015200089CFC1679387F7BF376700402322F7C48D
:10153000B707002083A7470582971A2083D7C18465
:101540007D8F9316270163D806003967B766004080
:101550007D1723A2E6C41A20F98F13973701635A27
:101560000700BD6737670040FD172322F7C4014518
:10157000F12303D7C1841E20F98F13974701635EBF
:10158000070083A70182638F070EF121BD673767CC
:1015900000409387F77F2322F7C41E2003D7C1841E
:1015A000F98F93F70710E1CFC16737670040938643
:1015B000F7EF2322D7C4032687C49386C1859315EA
:1015C000060163DA050A9042050690C28C420D4678
:1015D0006375B60A032607C4FD17218A59EE032650
:1015E00007C4938501867D8E3765004090C11387BF
:1015F00001860146130305C0A148931526003388D0
:101600006500032808000010A2953378F80023A095
:1016100005FF0506E31316FF10431366160010C3FB
:1016200010437D8E2320C5C41043799A10C31843FC
:10163000F98F2320F5C437670040832747C493F709
:101640000740E5DFC1679387F7BF37650040C16595
:101650002322F7C4130505C08147FD1521481397C0
:10166000270010103A96032606FE2A9785076D8EEE
:1016700010C3E39607FF23A006001D45C1210561A5
:101680006FE05FAD09455D2911B783C7618981C7E7
:10169000154723A8E1868280114723A8E18682802E
:1016A000828091E5854733B5A7000605828009450C
:1016B000828011E583A701841D479AAB8280138540
:1016C00081818280EFE2DFA6ED376FE0BFA803A73C
:1016D00001849306100209451C2393F7F707639CC6
:1016E000D70214336384F602930700026395F6026F
:1016F000B71700009387476CEFE29FA31CCF231915
:1017000007000145829701456FE0DFA4B71700008D
:101710009387276BD5B7828003A7018493061002B5
:1017200001451C3318231377F707631AD7009387F3
:10173000E7FD93F7F70F05453335F5000605828081
:10174000EFE21F9F83A7018423850700C524B767A5
:101750000040856637660040938707C09386F6F0A1
:10176000930506C298439107758F23AEE7FEE39B6E
:10177000B7FE9307F00F2322F6C4EFF0DF9823A8FB
:1017800001866FE03F9DEFE2BF9A11670347F7C6FE
:1017900083A70184014598B723950700EFF0AFE7D1
:1017A000930500200145EFF00FE8C1450145EFF03A
:1017B0008FE9930500040145EFF03F82930500088F
:1017C0000145EFF08FFF0145EFF04FF8B70700201C
:1017D00083C5C7070145EFF0FF870145EFF08FF0A4
:1017E00037670040032607C0C1679386F7FF93174A
:1017F000160163DF0700832707C0F58F8566938690
:10180000F6F0F58FB16693860608D58F2320F7C0D2
:1018100037670040832707C093F7070485C38327F2
:1018200007C0C166FD16F58F85669386F6F0F58FC5
:10183000A1669386060CD58F2320F7C09305006020
:101840000545EFF04FDE930500020545EFF0AFDFF1
:101850009305000C0545EFF04FF681450545EFF087
:101860000FE337670040832747C093F7070485C31A
:10187000832747C0C166FD16F58F85669386F6F00F
:10188000F58FA1669386060CD58F2322F7C03767A4
:101890000040032647C0C1679386F7FF93171601E0
:1018A00063DF0700832747C0F58F85669386F6F0D0
:1018B000F58FB16693860608D58F2322F7C0814540
:1018C0000945EFF04FD681450945EFF0CFD7930595
:1018D00000100945EFF06FF0930500040945EFF0A3
:1018E0006FF78D650945EFF08FDA37670040032603
:1018F00087C0C1679386F7FF9317160163DF070060
:10190000832787C0F58F85669386F6F0F58FB166DD
:1019100093860608D58F2324F7C0376700408327B6
:1019200087C093F7070485C3832787C0C166FD1668
:10193000F58F85669386F6F0F58FA1669386060C83
:10194000D58F2324F7C081450D45EFF0CFCD93050A
:1019500000020D45EFF02FCF930500140D45EFF079
:10196000CFE581450D45EFF08FD2376700408327E3
:10197000C7C093F7070485C38327C7C0C166FD1698
:10198000F58F85669386F6F0F58FA1669386060C33
:10199000D58F2326F7C0376700400326C7C0C1672D
:1019A0009386F7FF9317160163DF07008327C7C0ED
:1019B000F58F85669386F6F0F58FB16693860608F7
:1019C000D58F2326F7C00145EFE0DFF7B7070020EA
:1019D0002380072A054723A8E1866FE0AFF7EFE2EF
:1019E0002FF59385C180EFE0BFB56FE0AFF6EFE272
:1019F0002FF493854180EFE0BFB46FE0AFF583A78C
:101A00000184AC33914763EEB700EFE26FF2B707A2
:101A10000020938707088E05BE95EFE07FB26FE048
:101A20006FF301458280828082808280B7670040A8
:101A3000054723A0E7C423A007C4096723A207C45E
:101A4000130707C02396E1840967130707C023A083
:101A5000E7C401458280EFE2AFEDB767004083A79E
:101A600007C4376700404168C207C183814613033A
:101A700007C07D189385819EA148139626003305E3
:101A8000660008412E9685063375050108C2E39667
:101A900016FF93E607402320D7C493E61740F99B2F
:101AA000C207C1832320D7C493E607402320D7C4AD
:101AB000B766004003A746C41377074065DF416758
:101AC0001307F7BF23A2E6C4416837670040814689
:101AD000130307C07D18A148139626003385C5005F
:101AE00008411A9685063375050108C2E39616FF6C
:101AF00093E787402320F7C4832707C4C207C18325
:101B000093E747002320F7C4EFF02FEB6FE08FE45B
:101B1000EFE20FE237640040832704C4C207C183A9
:101B2000ED9BC207C1832320F4C4EFF08FE9B167B6
:101B3000938707F02320F4C46FE0CFE1EFE24FDF9B
:101B40009D47138481866303F50008C01C40154738
:101B5000636DF70011678A07130787CEBA979C4316
:101B6000828783A7418781E76537994711A0954709
:101B70001CC039A0713F91471CC0054723AAE186CC
:101B80006FE04FDD89475CA08D47DDB75C20FD1716
:101B900093F7F70F5CA05C2093F7F70FF5F39147ED
:101BA000C1BF37670040832707C4C207C18393E7DB
:101BB00007012320F7C495471CC0A9475CA0C9B7FB
:101BC0005C20FD1793F7F70F5CA05C2093F7F70FED
:101BD000C5FB37670040832707C4C207C183BD9B8D
:101BE000C207C1832320F7C499471CC023AA0186DA
:101BF00041BF01A001A0EFE20FD20111EFF0AFFE53
:101C000039CD239C0186138981A213848187794A67
:101C1000EFF06FFD01C5062063769A041E20B745DC
:101C200000009308C1013E99130881015C0818085F
:101C3000740030009385C5D1138581A2230009006B
:101C4000EF00101F99476317F5028347C10103474F
:101C500081018346410110840C86A880E92005613A
:101C60006FE0AFCE938714001EA0CA94EFF0AFF8D8
:101C700088A079BF37440000130504D3ED29374508
:101C800000001305C5D4C52937450000130585D6C6
:101C9000DD2137450000130545D8F129130504D38C
:101CA000D929EFF04FEA65BFEFE2EFC60545F12B0A
:101CB0003921EF00900B6924EFF0AFDF1305401FCF
:101CC000EF00100D138481A4B74900001305803E76
:101CD000EF00100C0D37703074205A2083C781A498
:101CE0000348140083482400938509D0138581A0FC
:101CF000EF00D00F138581A0BD29EFF0CFE4F9B735
:101D00009377350099EF130740063377E50285474F
:101D100019E7930700193375F502933715003E85CF
:101D200082808147EDBF1308E584420813580801FB
:101D30009308100863E2080DEFE28FBC373CE10125
:101D4000B78CE2013E8B3A84B68A3289AE89AA8B7F
:101D50008144130A207B130C0C38938C0C50639431
:101D60004B07FD19916C556C014A93F9F90F938C4F
:101D70000CDA130C0C18854D131D0A01135D0D01AF
:101D8000636E3D051307C00385663304E402938642
:101D900006E15566130606187D19854537050018B6
:101DA000B38ADA025A943309C9025694C52B054501
:101DB000152B4A9426942285EF00E06EEF00C07345
:101DC00001456FE0AFB75285253F19C5E694050A76
:101DD000420A135A0A0161B7E294D5BFB3874C0196
:101DE0009C235E85B3878703BE94193F01C56313A7
:101DF000BD01E294050A49B70545828013074006F4
:101E0000B377E5023355E5024D471375F50F63745B
:101E1000A7009387470613D527003E951D473375C6
:101E2000E50211671307C7DA2E970347F7FF8D8B7B
:101E30003A962A9699E7894763E5B7007D164206E8
:101E400041821D453375A6028280EFE2EFAB5564F7
:101E5000F52B13040418335485029387A1879A2322
:101E6000AA846304870682A31309207B9309C01602
:101E7000130AD01663F189024A855935050949C903
:101E800063084401130424E9420913590901DDB729
:101E9000420913590901138781A4916A231227016A
:101EA0008149138981A46D4B938A0ADA854B714C61
:101EB000138A190063618B06137AFA0F0504230352
:101EC00049011374F40FA3038900D567938707189A
:101ED000B3F4F4028567938707E1138481A433D7B1
:101EE000F402B3F4F4021377F70F18A01307C0033A
:101EF000B3D7E402B3F4E40293F7F70F1CB024A0C5
:101F00004A206C207030DD3D08A401456FE04FA3EE
:101F1000130434E995BF03554900DD3319C9639AA9
:101F20007901E30B84F90D1493190A0193D909017E
:101F300041B7D69983C70900E360F4F81D8CEDB76B
:101F4000EFE20F9F411185453705001881290545AE
:101F5000512E1145292EA9679387171A6306F50894
:101F6000CD240545D92601449304A00F1305100480
:101F7000AD2109ED63169400054541016FE08F9D89
:101F8000050451451374F40F2125CDB79307A00F15
:101F90000545E304F4FE13050010652E0545C12632
:101FA000A12B9D23854505458521B9239D292165C3
:101FB0007D15312B9123914581472947B546194617
:101FC0001305907EEFF03FD6B521A9659385151ACC
:101FD0001145412402C4CD475C84280085473EC694
:101FE000452CA535014551BF0145012E312B8545B5
:101FF000054519291123F9BF0545992311C1B135AB
:1020000009453D2B01C50945A12B81351545892B76
:10201000E52173002030B71702409843B706FFF060
:102020001367170098C3D843758FD8C39843B70672
:10203000F7FEFD16758F98C39843B706FCFFFD1693
:10204000758F98C3D843B70601FFFD16758FD8C3A7
:1020500037079F0098C7B746024003A7068013675B
:10206000070123A0E680D843B706C1FFFD16D8C3F9
:10207000D843D8C3D84313670740D8C3D843758F14
:10208000D8C3D843B7061000558FD8C39843B706B6
:102090000001558F98C3984393166700E3DD06FE51
:1020A000D843B7160240719BD8C3D84313672700A3
:1020B000D8C32147DC42B18BE39EE7FE8280B7168E
:1020C0000240DC421146B18B138741826385C70011
:1020D00021466388C702B7177A00938707201CC37D
:1020E000B7170240DC43918393F6F700B70700204F
:1020F0009387470CB69794231C43B3D7D7001CC3D0
:102100008280DC42D4424166C983BD8BF18E89074F
:1021100045466393C700C94781EEB746024083A690
:102120000680C18A89CEB7167A009386062021A838
:10213000B7160240D4421396E600E35606FEB716E1
:102140003D0093860690B387D70251BF8147E5468D
:102150009305F00F3306F5000306060013970701F9
:10216000418363C4C6003A8582808507E394B7FE45
:102170001307F00FCDBFEFD2BFFB19712A84F937D7
:10218000814763E1A702930515001C01C205AA97C8
:1021900029470A85C1812380E7F8EFF0AF9F0961E5
:1021A0006FD05FFBB306F400942218013E978507B9
:1021B0002300D7F893F7F70FE9B701A097F1FF1FB6
:1021C0009381418E173100201301C1E317250000D0
:1021D0001305C5DB97E5FF1F9385C5E21386818351
:1021E00063FAC5008322050023A05500110591055F
:1021F000E3EAC5FE13858183938581A56377B500E6
:10220000232005001105E36DB5FEFD42739002BC6D
:102210008D4273904280930280087390023097E25F
:10222000FFFF938262DE93E2320073905230EFF050
:102230009FDE97020000938262A7739012347300AE
:102240002030EFD2FFEE05458D2A0145BD226FD02B
:102250007FF04111B777004002C6938707C03EC6A2
:10226000B2473E952AC6B2478CC3410182804111D4
:10227000B777004002C6938707C03EC6B2473E9577
:102280002AC6B2478A234101828023AEA18682807A
:1022900003A7C187854714216310F7021C31639C93
:1022A000E7023C21960793E707F837E700E093F74A
:1022B000F70F36972300F740054793D7560033179B
:1022C000D700544189CE938707048A07B7E600E018
:1022D000B69798C38280EDF33C219607F9B79387B0
:1022E0000706E5B7377700401C4309C593E7071099
:1022F0001CC3828093F7F7EFE5BF377700405C435C
:1023000009C593E707105CC3828093F7F7EFE5BF39
:10231000B7170240D843B70640FFFD16758FD8C3E4
:10232000D8435A05598DC8C38280B717024023800D
:1023300007022380070205476306E500114763068D
:10234000E50082802380A702828015472380E70270
:102350008280371702401C535D8D08D3828001C9EB
:10236000371702401C53A166D58F1CD38280B71645
:1023700002409C5261777D17F98F9CD2828099C56B
:10238000371702401C4F5D8D08CF8280B71702407F
:10239000984F1345F5FF798D88CF828099C53717FF
:1023A00002405C4F5D8D48CF8280B7170240D84F06
:1023B0001345F5FF798DC8CF828001C937170240D8
:1023C0001C53C166D58F1CD38280B71602409C5225
:1023D00041777D17F98F9CD282809357550005472E
:1023E0006399E700B71702409C4333D5A7000589DE
:1023F000828009476396E700B71702409C53F5B700
:10240000B7170240DC53D5B7B737004003D7078072
:1024100089C5598D2390A78082801345F5FF798D5A
:10242000D5BFB737004003D7478013670701239212
:10243000E78082803737004083574780C207C183D7
:10244000BD9BC207C1832312F780828037360040CC
:10245000835686810357868142074183E31AD7FE5C
:10246000373600408356C6818357C681C207C18371
:10247000E39AD7FEB735004003D6858103D5858121
:1024800042054181E31AC5FE630CA700B736004040
:1024900003D7C68183D7C681C207C183E39AE7FE0B
:1024A00042055D8D8280EFD2BFC841112AC6953F9B
:1024B0003245B7370040135705014205239CE7809A
:1024C0004181239EA780BD3741016FD0BFC8EFD2A5
:1024D0003FC641112AC6B1373245B73700401357BE
:1024E00005013D8B42052394E78041812396A78017
:1024F000913741016FD01FC637370040835747805F
:1025000093F70702E5DF8280373700408357478023
:10251000C207C183DD9BC207C1832312F78037370F
:10252000004083574780A18BEDDF8280B7370040A2
:1025300003D747801345F5FF798D2392A7808280CA
:10254000373700408357478003570780C207698F9A
:10255000C18309C77D8D3335A0008280014582800B
:10256000EFD21FBDE1376FD0FFBE83A7418237177F
:102570007A0013070720B3D7E70293F7F70F2381F9
:10258000F1881307803EB387E7022390F1888280A9
:10259000B7F700E0D8438146799BD8C303D70188B9
:1025A0003306A70290CBD4CB98431367070198C397
:1025B00098431367170298C3D843058B75DF984378
:1025C000799B98C38280138781821C43938681A55F
:1025D0003E95636BD500B75600209386068063E571
:1025E000A60008C33E858280FD57EDBF35713ECB06
:1025F000B707008093C7F7FF3ECE3EC8C1779387E9
:10260000872032C536C73AC942CD46CF3ECA9387E6
:10261000C1822AC42ACC884334012E862C0086DE4F
:1026200036C2A12AA24723800700F6500D6182809E
:1026300071713ED39307402006C72EC632CD36CFE8
:102640003AD142D546D72312F1022ACC2AD41D28EA
:1026500097070000938707033EDEFD57B24523131B
:10266000F1029387C1822ACE2AD6884334092E8666
:102670002C0882C682D036CA9921BA404D61828028
:1026800001458280AA87850703C7F7FF6DFF338561
:10269000A7407D15828001114AC803A9850022CC7C
:1026A00052C45AC006CE26CA4EC656C22E84328B9B
:1026B000368A63E92609DE2513F7074851C304402B
:1026C0008C495848AA8AB389B4408D44B384E40243
:1026D0000947B3C4E402138716004E9763F3E4007E
:1026E000BA8493F70740BDCFA6855685EF10403FCB
:1026F0002A891DE1B14723A0FA005E247D5593E7A6
:1027000007045EA4F2406244D2444249B249224ADC
:10271000924A024B056182800C484E86EF1080225F
:102720005E2493F7F7B793E707085EA423282401F4
:1027300044C84E99B38434412320240104C45289EF
:1027400063732A01528908404A86DA85EF10A02A6D
:102750001C440145B38727411CC41C403E992320DB
:1027600024014DB726865685EF1060442A895DFD09
:102770000C485685EF10802CB5BFDE25717126D32D
:102780004AD14ECF06D722D552CD56CB5AC95EC7B5
:1027900062C566C393F70708AA892E89B284B9C3B4
:1027A0009C49A9E39305000436C6EF10603323204B
:1027B000A9002328A900B24615E1B14723A0F900DA
:1027C0007D55BA502A549A540A59FA496A4ADA4A43
:1027D0004A4BBA4B2A4C9A4C4D61828093070004B5
:1027E000232AF90093070002A30CF10293070003C8
:1027F00002DA230DF10236CE930B5002971A000035
:10280000938ACA5B054C294B26841C2099C3639983
:102810007709B30C9440638E0C00E6862686CA8541
:102820004E85EFF05FE7FD57630BF518D256E6963D
:1028300036DA1C2063850718FD579304140002D074
:1028400002D63ED202D4A301010682DC8C201546BA
:102850005685EF10A00D13841400825721E513F75D
:10286000070109C713070002A301E10613F7870058
:1028700009C71307B002A301E10694201307A002C1
:10288000638AE602B25726848146254618209305BE
:102890001400130707FD6372E6068DC63ED61DA021
:1028A0000504A5B7330555413315AC00C98F3ED09B
:1028B000A28469BF724793064700184336CE634728
:1028C00007023AD618209307E002631DF704183078
:1028D0009307A002631BF702F2470904138747001E
:1028E0009C433ACE63C107023ED22DA83307E04095
:1028F00093E727003AD63ED0F1B7B3876703854602
:102900002E84BA9761B7FD57C5B7050402D2814638
:1029100081472546182093051400130707FD6376A9
:10292000E606F9F20C200D4617150000130585493F
:10293000EF00D07F11CD971700009387A7481D8D1A
:1029400093070004B397A700025505045D8D2AD0B4
:102950000C201946171500001305054793041400B1
:10296000230CB102EF00907C25C597D7FFFF93871A
:10297000676995E70257F2471377071009CF910768
:102980003ECED257D2973EDA41B5B387670385462C
:102990002E84BA9741B79D07E19BA107D5B7780868
:1029A00097060000938666CF4A860C104E859700E6
:1029B0000000E7000000FD572A8AE314F5FC835766
:1029C000C9007D5593F70704E39D07DE5255D5BB3B
:1029D000780897060000938646CC4A860C104E85F0
:1029E0007923D1BF411106C622C426C24AC0FD5771
:1029F000639AF500FD54B240224426850249924470
:102A0000410182805E2613F9F50F93F4F50F93F7D9
:102A1000F7FD5EA65C5A584285C71C5E3284635C33
:102A2000F7001C401387F7FF18C0A38F27FF5C40F7
:102A300085075CC0C9B7B285EF0050627DD15DBF2C
:102A4000144A1C4281CE63FBF60083C6F7FF6397EE
:102A50009600FD1705071CC258C271BF5CDE9307C4
:102A600046045CDA8D471CDE930766041CC285476A
:102A700038C2230326055CC2BDBF411122C42E8487
:102A8000CC5906C69DC1930744046384F500EF004A
:102A9000F07A3C40232A04025CC081CB5C5C014597
:102AA0001CC0B2402244410182801C482322040001
:102AB0007D551CC05E2493E707025EA4DDB71301B9
:102AC00001D297070000938727F22326312D232C6C
:102AD000F1289309C10197070000938747FA232C37
:102AE000812C232A912C2328212D2324412D23229C
:102AF000512D2320612D232E712B232C812B232E4E
:102B0000112C232A912B2328A12B2326B12BAA8415
:102B10002E84232401122326011223283113232E6D
:102B2000F12836CC130A5002130BA002A54B2949F9
:102B3000971A0000938A0A2917DCFFFF130C8C4CAC
:102B40001C2232C6638C0730EF00B0593246834DE9
:102B50000600930C16006E951C31A18BA1C35C403E
:102B60006357F002EF00F0571C4098233A95183154
:102B7000218B19E36686E9B70327C11285071CC0BC
:102B800005072326E11258407D1758C0C9BF832787
:102B9000C129A2852685829771D5E9BF63974D1714
:102BA00023220112232E01101C3263976701C147B3
:102BB000232EF110930C260083C50C00668D850C26
:102BC000938705FD63F0FB060D465685EF00105612
:102BD00001CD330555418547B397A7000325C111A2
:102BE000668D5D8D232EA11083470D00130770069F
:102BF000930C1D006366F7081307500663FCE71A81
:102C000013077004636AF7021307500463F4E71AAA
:102C100063880712638B470F8D47232AF112232005
:102C2000211361A083274112B307F902938707FD9F
:102C3000AE972322F11249B71307B0056380E7125C
:102C40006365F70213078005E398E7FC0327C111CA
:102C500013670720232EE11041472320E1121307B9
:102C6000E006B337F7008D073DA8130730066384ED
:102C7000E71013074006E391E7FA23202113C5B7B5
:102C8000130700076380E70C6363F7061307E0068A
:102C9000638CE70E636FF70A13079006E39EE7F66F
:102CA000232001128D47232AF1125C406356F01055
:102CB0008327C11193F7070491EBEF0090421C406A
:102CC00098233A951831218B6310071083274113FD
:102CD00009476340F712340822866C0A2685152BB3
:102CE0008547630DF5168947E316F5E8B9A0130784
:102CF0005007E384E7F813078007E389E7F4130735
:102D00003007E39BE7F0894779BF5C406351F002ED
:102D10001C4098236314B715850758401CC08327AF
:102D2000C1127D1758C085072326F112A1B583274C
:102D3000C129A2852685829761DD0325811271ED67
:102D40007D55C5A00327C11113670702232EE1108B
:102D5000F5BDA1472320F1129147B1B7E6854E8515
:102D6000EF00807E8327C111AA8C93E70704232EEE
:102D7000F11085470DBF8327C111232A011293E764
:102D80000704232EF11015B78327C11113F707018C
:102D9000E31207DE624793F517008326C11213067C
:102DA000470089C532CC1C4396A3E9B332CC1C43FF
:102DB00094C3C9B39547C5BD8327C129A28526857C
:102DC0008297E30705EE95BF0327C1120507232667
:102DD000E11258407D1758C06355E00085071CC0BC
:102DE000E9BD8327C129A28526858297E30705ECE3
:102DF000A9B711476348F700340822866C0A268574
:102E0000CD29F9BDE3080CD6340822866C0A268544
:102E100097000000E7000000E1B55E2493F7070487
:102E200085F38320C12D0324812D8324412D032983
:102E3000012D8329C12C032A812C832A412C032BA9
:102E4000012C832BC12B032C812B832C412B032D95
:102E5000012B832DC12A1301012E828003258112AB
:102E6000C9B7797156CA9C49BA8A984522D426D2E4
:102E70004ECE52CC06D64AD05AC85EC6AA892E84F7
:102E8000B284368A63D3E700BA879CC00347340410
:102E900019C385079CC01C4093F7070281C79C405B
:102EA00089079CC00329040013796900631A09008B
:102EB000130B9401FD5B5C449840998F634CF904BB
:102EC0001C408346340493F70702B336D000A5EBC9
:102ED00013063404D2854E85829AFD576303F504A8
:102EE0001C4011469840998B544481446397C70015
:102EF000B384E64063D3040081441C4418486354FF
:102F0000F700998FBE94014969047D5B639824059D
:102F1000014509A885465A86D2854E85829A631E48
:102F200075017D55B250225492540259F249624AB9
:102F3000D24A424BB24B456182800509ADBF33078F
:102F4000D40013060003A301C70403475404938766
:102F50001600A2978906A381E7049DBF85462286B5
:102F6000D2854E85829AE30E65FB050945B77971D6
:102F700022D426D24AD04ECE06D652CC56CA5AC8F1
:102F8000B689942D930790063289AA842E841386DD
:102F90003504638DF60263E2D706930780056387E5
:102FA000F61863EDD700638F062093073004638F14
:102FB000F60A930A24042301D404D1A0930730060F
:102FC0006386F60A93074006E395F6FE1C40084325
:102FD00093F6070893054500CDC61C410CC363D882
:102FE00007001307D002B307F040A301E4049716CB
:102FF00000009386E6DD29476DA8930700076383E9
:10300000F61663E5D7029307E006638AF61893077E
:10301000F006E390F6FA0C401C4313F805081385FC
:1030200047006308080608C39C438DA89307500710
:10303000E383F6FE93078007638AF612930730074F
:10304000E399F6F61C43D04181459386470014C3AB
:1030500083AA07005685EF00700D01C53305554161
:1030600048C05C401CC8A301040461A81C43930A27
:103070002404938647009C4314C32301F40485472A
:10308000D5B793F607041C410CC3B1DAC207C18758
:10309000B9B793F5050408C3C1D99E231307F006F9
:1030A0006387E60E97160000938686D22947A30110
:1030B00004044C400CC463C5050008406D9908C069
:1030C00099E3B28A89CDB28AB3F5E702FD1AB695C3
:1030D0008C212380BA00B3D5E70263F0E70CA14747
:1030E000631EF7001C40858B91CB58401C4863C77A
:1030F000E70093070003A38FFAFEFD1A330656413B
:1031000010C84E87CA867000A2852685EFF07FD54D
:103110007D5A631D450B7D55B2502254925402597D
:10312000F249624AD24A424B45618280A382D50469
:10313000971600009386C6C90C40084313F805088B
:103140001C411105630D080208C313F7150001C7E0
:1031500093E505020CC04147B9FB0C4093F5F5FD22
:103160000CC0B1B79C4193E707029CC1930780074D
:10317000A302F404971600009386C6C675BF13F821
:10318000050408C3E30308FCC207C1837DBF97168B
:1031900000009386E6C3214719BFAE8735B7944137
:1031A0001C43CC4913F80608138547006306080042
:1031B00008C39C438CC339A008C393F606049C4300
:1031C000F5DA8EA323280400B28A25BF1448568658
:1031D000CA8526858299E30045F51C40898B8DE7D9
:1031E000B2474844E35AF5F23E853DB785465686D8
:1031F000CA8526858299E30065F3050A5C44324757
:10320000998FE345FAFEE9BF014A930A94017D5B79
:10321000F5B79C45011122CC26CA52C406CE4AC835
:103220004EC656C25AC02A8A2E84B28491E7984D5F
:10323000854711C3FD571CC41C40C18B99E79C42B4
:103240001387470098C283A907000149854A094BA3
:10325000084C0DC5631F55079C4098235C48BA97DE
:103260009C2389EF63170904F2406244D244424927
:10327000B249224A924A024B056182801C400509EC
:10328000C18B91E79C4085099C23A38FF9FE984050
:10329000DC40050798C01844FD17DCC07D1718C432
:1032A00009CBE347F0FA83270418A6855285829755
:1032B00045D11C40C18B81EB5C4485075CC41C4C30
:1032C00099C3238009001C4801453E992328240105
:1032D00061BF6319650131259C409C233E951C31DB
:1032E000A18BC9DFE31709FC084C8547E313F5FC04
:1032F000A5BF5D7197170000938747B1CAC03EC252
:103300003689971700009387A7B0944D3EC497174E
:103310000000938727B0A2C44EDE5AD86ECE3EC6B8
:1033200086C6A6C252DC56DA5ED662D466D26AD0AF
:103330008D47AA892E84B28D170B0000130BEB501A
:103340006396F600170B0000130BEB3B1C4493062F
:10335000C015014A1386F7FF63F7C600138A37EAE0
:103360009307D0151CC41C408566938606D0930431
:10337000C401D58F1CC0130C4100A68A814B930C4D
:10338000002083A70D0003250C0009468C23792B10
:1033900039CD8547639EFB0C5C4099E71C40214773
:1033A00058C093E707201CC01C4093F7F7AF1CC020
:1033B0001C441386F7FF10C49DCB03A60D00138D8C
:1033C0001A009307160023A0FD0010222380CA00D4
:1033D00003A64D00EA8A7D1623A2CD006349C000F2
:1033E00003260418EE854E85029663180510850B9A
:1033F0008D47110CE397FBF85C4099E3A9475CC04B
:103400005C40484897150000938505A09D8DFD7B85
:10341000056C568D152A814A930C0003938BFB6F24
:10342000130C0C8014441040BDCE03A50D004C4875
:1034300003480500C2958C21BDC563189805B37576
:103440008601A1C5850A63050A0085067D1A14C494
:1034500083A64D00FD1623A2DD006350D00483A691
:103460000D00850623A0DD001444FD1614C45DBFC5
:103470008947E39FFBF21C4013F60760E31996F7B8
:10348000414758C093E707101DB73376760110C047
:103490001421050DA30FDDFE65BF83260418EE85FC
:1034A0004E85829671D1144093F6061085C263FC56
:1034B000A4018345FDFF8326C417130AFDFF6E8612
:1034C0004E858296528D0545630E9D041840418BB2
:1034D00039E323000D0054400146A6854E85029B2A
:1034E00014400327090013F6060211CA9306470089
:1034F0002320D900184308C321A8814A6DB793F54A
:1035000016001306470095CD2320C90018430AA3CF
:103510005844050758C41C48B3049D40D694BE9433
:1035200004C80145B640264496440649F259625AF9
:10353000D25A425BB25B225C925C025DF24D6161E9
:1035400082802320C9007DB79C211307E005638694
:10355000E7041387150081460146930500103308E0
:10356000C5002300D8000506E31BB6FE1306F7FFCF
:103570009DC393C616009308D0021308D0053306E6
:10358000F50014A20C23130617006383150363844C
:10359000050189E93A8632858280138725009C31AE
:1035A00085465DBFAE873287D9BF9307D002E5BF9E
:1035B0000C33E38C05FFE3CAF5FE090785073306E4
:1035C000F50014A2E3CCB7FE75BF79714AD04ECE98
:1035D00006D622D426D2AA892E899304190003C4C0
:1035E000F4FF3A8536C632C42EC23AC0C52C2295A5
:1035F0001C3102479245A18B2246B246D1E3930784
:10360000D0026311F4089C20054393042900E5C609
:1036100041476390E60213070003639CE7009C2088
:103620001307800593F7F70D6392E70C9C30C146B2
:103630008904B70800806314030093C8F8FF33FFC0
:10364000D80201480145A54FE54EFD5233DED802B0
:10365000138707FD63E3EF04BA8763DED704630DC6
:1036600058007D58636AAE006314AE006346FF00E5
:1036700005483385A6023E95850483C7F4FFC9BF7C
:103680002689A1BF9307B0026305F400A287014316
:10369000BDBF9C2093042900DDBF1387F7FB63E5C2
:1036A000EE00938797FC55BF1387F7F963E5EE00AB
:1036B000938797FA5DB7FD57631FF80093072002C1
:1036C00023A0F900468519EEB250225492540259B3
:1036D000F24945618280630403003305A0406DD642
:1036E000630408009385F4FF0CC2F9BF930700033D
:1036F000A9F2A1463DBF13070003E382E7F2A94602
:103700000DBF9387C1829C43985309E717D7FF1FCA
:10371000130787A26FF07FEB79714AD04ECE06D6A1
:1037200022D426D2AA892E899304190003C4F4FF57
:103730003A8536C632C42EC23AC04D2222951C317B
:1037400002479245A18B2246B246A5EF9307D002CD
:10375000631BF4069C20054393042900F9CE4147DE
:103760006390E60213070003639CE7009C201307A5
:10377000800593F7F70D639DE70A9C30C1468904E5
:103780007D57335ED70201480145254FE54EB3789A
:10379000D702138707FD6363EF04BA8763D0D706A8
:1037A000634C08047D58636AAE006314AE0063C6C0
:1037B000F80005483385A6023E95850483C7F4FFCB
:1037C000C9BF268995B79307B0026305F400A287A5
:1037D000014369B79C2093042900DDBF1387F7FBE1
:1037E00063E5EE00938797FC55BF1387F7F963E70E
:1037F000EE00938797FA5DB77D58C1B7635F080005
:103800009307200223A0F9007D5519EEB2502254EF
:1038100092540259F24945618280630403003305E2
:10382000A0406DD6630408009385F4FF0CC2F9BF75
:1038300093070003B1F6A146A1B713070003E3877E
:10384000E7F2A94635BF9387C1829C43985309E7A5
:1038500017D7FF1F1307478E6FF01FEC011122CC03
:103860002E84CC5906CE26CA4AC84EC652C49307E7
:1038700044046391F504930500409D2411E97D55AE
:10388000F2406244D2444249B249224A05618280F0
:10389000930700401CDC8347640448D81305D53FD8
:1038A0003CA1834754041CB1834744041CA108C0B5
:1038B0000145F9B703298403931919004E86C52CD5
:1038C000AA8455DD330A2501AA854A8652859D289A
:1038D0002320440144D8232C3403D9BF0325C50E2B
:1038E00082809387C1829C439C5389E797D7FF1FAF
:1038F0009387878403A5C70E828091ED41116C00E8
:10390000014501CA795591C61C229CC10822333554
:10391000A00041018280014509CA795599C61C223F
:103920009CC108223335A0008280828093F5F50F78
:103930002A966314C500014582801C21E38EB7FEE0
:103940000505C5BFB3C7A5008D8B3307C50081E74B
:103950008D4763EDC700AA87637EE508942185073C
:103960008505A38FD7FEE3EBE7FE828093763500D3
:10397000AA8789CA942185078505A38FD7FE93F668
:103980003700C5BF9376C7FF138606FE63F0C706F0
:1039900083A3050083A2450083AF850003AFC50064
:1039A00083AE050103AE450103A3850183A8C501CC
:1039B0009385450223A0770003A8C5FF23A25700E3
:1039C00023A4F70123A6E70123A8D70123AAC7014F
:1039D00023AC670023AE17019387470223AE07FF8E
:1039E00075B790419107910523AEC7FEE3EBD7FE73
:1039F000E3E6E7F6828063F1A504B386C500637D44
:103A0000D5029345F6FF8147FD176393F500828049
:103A10003387F600034807003387C7002A9723003F
:103A20000701DDB73387F50014233307F500850759
:103A300014A3E319F6FE82808147E5BFCDC183A7B9
:103A4000C5FF411122C406C626C21384C5FF63D335
:103A500007003E94AA84E52A938741889C4399EB0A
:103A60002322040023A281882244B2402685924466
:103A70004101F9AA637EF40014403307D400639631
:103A8000E7009843DC43369718C05CC0E1BFBA87B3
:103A9000D84319C3E37DE4FE94433386D700631F04
:103AA00086001040B29694C33386D700E31EC7FA4F
:103AB00010435843B29694C3D8C37DB76375C4000E
:103AC000B1479CC055B71040B306C4006316D70079
:103AD00014435843B29614C058C0C0C371B7828013
:103AE000011126CA93843500F19806CE22CC4AC82B
:103AF0004EC6A104B14763F1F404B14463E0B404D9
:103B00002A89B1229387418898433A8431E0938788
:103B100081889C4391E781454A85F52023A4A188AB
:103B2000A6854A85CD20FD5963173507B147232067
:103B3000F9004A85312A29A0E3D204FCB1471CC10F
:103B40000145F2406244D2444249B2490561828053
:103B50001C40858F63CE0702AD4663F6F6001CC09D
:103B60003E9404C031A05C406312870223A2F18816
:103B70004A85F9281305B400930744006199330777
:103B8000F54061D33A94898F1CC065BF5CC3CDB743
:103B900022874040A5BF130435007198E30385FCDC
:103BA000B305A4404A858520E31D35FB41B781E577
:103BB000B2856FF0FFF2011122CC06CE26CA4AC8A8
:103BC0004EC6328401EEEFF07FE70149F2406244D5
:103BD0004A85D2444249B24905618280AE84AA89AD
:103BE0008D282689E37485FEA2854E85EFF05FEF70
:103BF0002A8969DDA6852286EFF0DFD4A6854E8569
:103C0000EFF0DFE3E1B7411122C42A842E8523AA15
:103C100001A406C6EFE03F9BFD576317F5009387AD
:103C200041A59C4391C31CC0B24022444101828003
:103C300089CD9307F00F63F7C7009307A0081CC155
:103C40007D55828090A105458280014582808280D9
:103C5000828083A7C5FF1385C7FF63D50700AA9598
:103C60009C413E95828000000902430002010080D1
:103C700032090400000102020100052400100105C0
:103C80002401000104240202052406000107058125
:103C90000340000109040100020A000000070502B8
:103CA00002400000070583024000000012011001DD
:103CB00002000040861A0CFE000101020001000013
:103CC00016034C00750064006B006F0000000000DC
:103CD00000000000000000000E03420065004300E9
:103CE0000000000000000000621B0000741B0000C8
:103CF000841B00008C1B0000A21B0000C01B0000E6
:103D000025642D25642D25642020253032643A2534
:103D10003032643A253032640D0A000025642D25C6
:103D2000642D25642025643A25643A25640000004A
:103D30002323232323232323232323232323232353
:103D4000232323232323232323000000232020498C
:103D50006E76616C69642074696D6520666F726D42
:103D60006174212023000000232020456E746572B9
:103D7000206974206C696B6520746869733A20202F
:103D80002300000023202031302D342D32303235F5
:103D90002031333A32343A353020202023000000DD
:103DA0001F1C1F1E1F1E1F1F1E1F1E1F000303069A
:103DB0000104060205000305232D302B200000001E
:103DC000686C4C0065666745464700003031323309
:103DD0003435363738394142434445460000000007
:103DE0003031323334353637383961626364656671
:103DF00000000000412D46612D66383930313233E4
:103E0000343536375D0000002B2D000030300000C7
:103E100078580000000000000000000000000000D2
:103E20000000000000000000000000000000000092
:103E30000000000000000000000000000000000082
:103E40000000000000000000000000000000000072
:103E50000000000000000000000000000000000062
:103E60000000000000000000000000000000000052
:103E70000000000043000000504F5349580000006C
:103E80002E00000000202020202020202020282894
:103E9000282828202020202020202020202020200A
:103EA000202020202088101010101010101010104A
:103EB000101010101004040404040404040404107A
:103EC0001010101010104141414141410101010108
:103ED00001010101010101010101010101010101D2
:103EE00010101010101042424242424202020202DE
:103EF00002020202020202020202020202020202A2
:103F00001010101020000000000000000000000051
:103F100000000000000000000000000000000000A1
:103F20000000000000000000000000000000000091
:103F30000000000000000000000000000000000081
:103F40000000000000000000000000000000000071
:103F50000000000000000000000000000000000061
:103F60000000000000000000000000000000000051
:103F70000000000000000000000000000000000041
:083F8000000000000000000039
:103F880016033000310032003300340035003600AB
:103F9800370038003900000020140000E80900004C
:103FA80078140000E8090000E8090000E8090000AA
:103FB800E8090000E809000022140000E8090000F0
:103FC800E8090000E8090000E8090000E809000025
:103FD80040170000861700002A1A0000261A000061
:103FE800CE16000018170000A2160000DE19000007
:103FF800EE190000FE19000000000000400000005B
:10400800D002002004000000D83C00000E00000090
:10401800C03C000016000000000000201600000050
:10402800E80900008A160000E8090000E809000015
:10403800E8090000281A0000E8090000A01600009E
:1040480098160000000000000000000001020304B0
:104058000607080900000000343E0000543E000036
:10406800143E0000000000000000000000000000F6
:104078000000000000000000000000000000000038
:104088000000000000000000000000000000000028
:104098000000000000000000000000000000000018
:1040A8000000000000000000000000000000000008
:1040B80000000000430000000000000000000000B5
:1040C80000000000000000000000000000000000E8
:1040D8000000000043000000000000000000000095
:1040E80000000000000000000000000000000000C8
:1040F8000000000043000000000000000000000075
:1041080000000000000000000000000000000000A7
:104118000000000043000000000000000000000054
:104128000000000000000000000000000000000087
:104138000000000043000000000000000000000034
:104148000000000000000000000000000000000067
:104158000000000043000000000000000000000014
:104168000000000000000000000000000000000047
:1041780000000000430000000000000000000000F4
:104188000000000000000000000000000000000027
:1041980000000000303C0000FA3800000000000079
:1041A800843E0000803E0000DC3D0000DC3D000055
:1041B800DC3D0000DC3D0000DC3D0000DC3D000093
:1041C800DC3D0000DC3D0000DC3D0000FFFFFFFFA0
:1041D800FFFFFFFFFFFFFFFFFFFF0000010041534C
:1041E80043494900000000000000000000000000F2
:1041F8000000000000000000000000000000415323
:1042080043494900000000000000000000000000D1
:104218000000000000000000000000000000000096
:1042280001010000683C000043000000AC3C0000B5
:10423800120000000F01000000C201000000081E6B
:1042480001000000006CDC02F8040020D40000200B
:0842580004030904000000004A
:00000001FF
